{"abi":[{"type":"constructor","inputs":[{"name":"_fxrp","type":"address","internalType":"address"},{"name":"_ftsoOracle","type":"address","internalType":"address"},{"name":"_secureRandom","type":"address","internalType":"address"},{"name":"_initialOwner","type":"address","internalType":"address"}],"stateMutability":"nonpayable"},{"type":"function","name":"NO_TOKEN","inputs":[],"outputs":[{"name":"","type":"address","internalType":"address"}],"stateMutability":"view"},{"type":"function","name":"YES_TOKEN","inputs":[],"outputs":[{"name":"","type":"address","internalType":"address"}],"stateMutability":"view"},{"type":"function","name":"calculatePayout","inputs":[{"name":"marketId","type":"uint256","internalType":"uint256"},{"name":"position","type":"address","internalType":"address"},{"name":"amount","type":"uint256","internalType":"uint256"}],"outputs":[{"name":"payout","type":"uint256","internalType":"uint256"}],"stateMutability":"view"},{"type":"function","name":"claimWinnings","inputs":[{"name":"marketId","type":"uint256","internalType":"uint256"}],"outputs":[],"stateMutability":"nonpayable"},{"type":"function","name":"config","inputs":[],"outputs":[{"name":"minBettingDuration","type":"uint256","internalType":"uint256"},{"name":"maxBettingDuration","type":"uint256","internalType":"uint256"},{"name":"settlementDelay","type":"uint256","internalType":"uint256"},{"name":"minStakeAmount","type":"uint256","internalType":"uint256"},{"name":"maxStakeAmount","type":"uint256","internalType":"uint256"},{"name":"platformFeeRate","type":"uint256","internalType":"uint256"},{"name":"oracleConfidenceThreshold","type":"uint256","internalType":"uint256"}],"stateMutability":"view"},{"type":"function","name":"createMarket","inputs":[{"name":"description","type":"string","internalType":"string"},{"name":"targetYield","type":"uint256","internalType":"uint256"},{"name":"bettingDuration","type":"uint256","internalType":"uint256"},{"name":"useRandomDuration","type":"bool","internalType":"bool"}],"outputs":[{"name":"marketId","type":"uint256","internalType":"uint256"}],"stateMutability":"nonpayable"},{"type":"function","name":"emergencyWithdraw","inputs":[{"name":"amount","type":"uint256","internalType":"uint256"},{"name":"recipient","type":"address","internalType":"address"}],"outputs":[],"stateMutability":"nonpayable"},{"type":"function","name":"ftsoOracle","inputs":[],"outputs":[{"name":"","type":"address","internalType":"contract ISimpleYieldOracle"}],"stateMutability":"view"},{"type":"function","name":"fxrp","inputs":[],"outputs":[{"name":"","type":"address","internalType":"contract IFAsset"}],"stateMutability":"view"},{"type":"function","name":"getMarket","inputs":[{"name":"marketId","type":"uint256","internalType":"uint256"}],"outputs":[{"name":"market","type":"tuple","internalType":"struct PredictYieldMarketV2.Market","components":[{"name":"id","type":"uint256","internalType":"uint256"},{"name":"description","type":"string","internalType":"string"},{"name":"creator","type":"address","internalType":"address"},{"name":"targetYield","type":"uint256","internalType":"uint256"},{"name":"creationTime","type":"uint256","internalType":"uint256"},{"name":"bettingEndTime","type":"uint256","internalType":"uint256"},{"name":"settlementTime","type":"uint256","internalType":"uint256"},{"name":"totalYesStake","type":"uint256","internalType":"uint256"},{"name":"totalNoStake","type":"uint256","internalType":"uint256"},{"name":"platformFee","type":"uint256","internalType":"uint256"},{"name":"status","type":"uint8","internalType":"enum PredictYieldMarketV2.MarketStatus"},{"name":"finalYield","type":"uint256","internalType":"uint256"},{"name":"winner","type":"address","internalType":"address"},{"name":"useRandomDuration","type":"bool","internalType":"bool"},{"name":"randomRequestId","type":"bytes32","internalType":"bytes32"}]}],"stateMutability":"view"},{"type":"function","name":"getMarketOracleData","inputs":[{"name":"marketId","type":"uint256","internalType":"uint256"}],"outputs":[{"name":"oracleData","type":"tuple","internalType":"struct PredictYieldMarketV2.OracleData","components":[{"name":"ftsoPrice","type":"uint256","internalType":"uint256"},{"name":"fdcPrice","type":"uint256","internalType":"uint256"},{"name":"timestamp","type":"uint256","internalType":"uint256"},{"name":"confidence","type":"uint256","internalType":"uint256"},{"name":"isValid","type":"bool","internalType":"bool"}]}],"stateMutability":"view"},{"type":"function","name":"getMarketStats","inputs":[],"outputs":[{"name":"totalMarketsCount","type":"uint256","internalType":"uint256"},{"name":"totalVolumeAmount","type":"uint256","internalType":"uint256"},{"name":"activeMarkets","type":"uint256","internalType":"uint256"}],"stateMutability":"view"},{"type":"function","name":"getUserBets","inputs":[{"name":"marketId","type":"uint256","internalType":"uint256"},{"name":"user","type":"address","internalType":"address"}],"outputs":[{"name":"bets","type":"tuple[]","internalType":"struct PredictYieldMarketV2.Bet[]","components":[{"name":"bettor","type":"address","internalType":"address"},{"name":"marketId","type":"uint256","internalType":"uint256"},{"name":"position","type":"address","internalType":"address"},{"name":"amount","type":"uint256","internalType":"uint256"},{"name":"timestamp","type":"uint256","internalType":"uint256"},{"name":"claimed","type":"bool","internalType":"bool"}]}],"stateMutability":"view"},{"type":"function","name":"getUserMarkets","inputs":[{"name":"user","type":"address","internalType":"address"}],"outputs":[{"name":"marketIds","type":"uint256[]","internalType":"uint256[]"}],"stateMutability":"view"},{"type":"function","name":"marketOracleData","inputs":[{"name":"","type":"uint256","internalType":"uint256"}],"outputs":[{"name":"ftsoPrice","type":"uint256","internalType":"uint256"},{"name":"fdcPrice","type":"uint256","internalType":"uint256"},{"name":"timestamp","type":"uint256","internalType":"uint256"},{"name":"confidence","type":"uint256","internalType":"uint256"},{"name":"isValid","type":"bool","internalType":"bool"}],"stateMutability":"view"},{"type":"function","name":"markets","inputs":[{"name":"","type":"uint256","internalType":"uint256"}],"outputs":[{"name":"id","type":"uint256","internalType":"uint256"},{"name":"description","type":"string","internalType":"string"},{"name":"creator","type":"address","internalType":"address"},{"name":"targetYield","type":"uint256","internalType":"uint256"},{"name":"creationTime","type":"uint256","internalType":"uint256"},{"name":"bettingEndTime","type":"uint256","internalType":"uint256"},{"name":"settlementTime","type":"uint256","internalType":"uint256"},{"name":"totalYesStake","type":"uint256","internalType":"uint256"},{"name":"totalNoStake","type":"uint256","internalType":"uint256"},{"name":"platformFee","type":"uint256","internalType":"uint256"},{"name":"status","type":"uint8","internalType":"enum PredictYieldMarketV2.MarketStatus"},{"name":"finalYield","type":"uint256","internalType":"uint256"},{"name":"winner","type":"address","internalType":"address"},{"name":"useRandomDuration","type":"bool","internalType":"bool"},{"name":"randomRequestId","type":"bytes32","internalType":"bytes32"}],"stateMutability":"view"},{"type":"function","name":"nextMarketId","inputs":[],"outputs":[{"name":"","type":"uint256","internalType":"uint256"}],"stateMutability":"view"},{"type":"function","name":"owner","inputs":[],"outputs":[{"name":"","type":"address","internalType":"address"}],"stateMutability":"view"},{"type":"function","name":"pause","inputs":[],"outputs":[],"stateMutability":"nonpayable"},{"type":"function","name":"paused","inputs":[],"outputs":[{"name":"","type":"bool","internalType":"bool"}],"stateMutability":"view"},{"type":"function","name":"placeBet","inputs":[{"name":"marketId","type":"uint256","internalType":"uint256"},{"name":"position","type":"address","internalType":"address"},{"name":"amount","type":"uint256","internalType":"uint256"}],"outputs":[],"stateMutability":"nonpayable"},{"type":"function","name":"renounceOwnership","inputs":[],"outputs":[],"stateMutability":"nonpayable"},{"type":"function","name":"secureRandom","inputs":[],"outputs":[{"name":"","type":"address","internalType":"contract ISecureRandom"}],"stateMutability":"view"},{"type":"function","name":"settleMarket","inputs":[{"name":"marketId","type":"uint256","internalType":"uint256"}],"outputs":[],"stateMutability":"nonpayable"},{"type":"function","name":"totalMarkets","inputs":[],"outputs":[{"name":"","type":"uint256","internalType":"uint256"}],"stateMutability":"view"},{"type":"function","name":"totalVolume","inputs":[],"outputs":[{"name":"","type":"uint256","internalType":"uint256"}],"stateMutability":"view"},{"type":"function","name":"transferOwnership","inputs":[{"name":"newOwner","type":"address","internalType":"address"}],"outputs":[],"stateMutability":"nonpayable"},{"type":"function","name":"unpause","inputs":[],"outputs":[],"stateMutability":"nonpayable"},{"type":"function","name":"updateConfig","inputs":[{"name":"newConfig","type":"tuple","internalType":"struct PredictYieldMarketV2.MarketConfig","components":[{"name":"minBettingDuration","type":"uint256","internalType":"uint256"},{"name":"maxBettingDuration","type":"uint256","internalType":"uint256"},{"name":"settlementDelay","type":"uint256","internalType":"uint256"},{"name":"minStakeAmount","type":"uint256","internalType":"uint256"},{"name":"maxStakeAmount","type":"uint256","internalType":"uint256"},{"name":"platformFeeRate","type":"uint256","internalType":"uint256"},{"name":"oracleConfidenceThreshold","type":"uint256","internalType":"uint256"}]}],"outputs":[],"stateMutability":"nonpayable"},{"type":"function","name":"userBets","inputs":[{"name":"","type":"uint256","internalType":"uint256"},{"name":"","type":"address","internalType":"address"},{"name":"","type":"uint256","internalType":"uint256"}],"outputs":[{"name":"bettor","type":"address","internalType":"address"},{"name":"marketId","type":"uint256","internalType":"uint256"},{"name":"position","type":"address","internalType":"address"},{"name":"amount","type":"uint256","internalType":"uint256"},{"name":"timestamp","type":"uint256","internalType":"uint256"},{"name":"claimed","type":"bool","internalType":"bool"}],"stateMutability":"view"},{"type":"function","name":"userMarkets","inputs":[{"name":"","type":"address","internalType":"address"},{"name":"","type":"uint256","internalType":"uint256"}],"outputs":[{"name":"","type":"uint256","internalType":"uint256"}],"stateMutability":"view"},{"type":"event","name":"BetClaimed","inputs":[{"name":"marketId","type":"uint256","indexed":true,"internalType":"uint256"},{"name":"bettor","type":"address","indexed":true,"internalType":"address"},{"name":"payout","type":"uint256","indexed":false,"internalType":"uint256"}],"anonymous":false},{"type":"event","name":"BetPlaced","inputs":[{"name":"marketId","type":"uint256","indexed":true,"internalType":"uint256"},{"name":"bettor","type":"address","indexed":true,"internalType":"address"},{"name":"position","type":"address","indexed":true,"internalType":"address"},{"name":"amount","type":"uint256","indexed":false,"internalType":"uint256"},{"name":"totalStake","type":"uint256","indexed":false,"internalType":"uint256"}],"anonymous":false},{"type":"event","name":"ConfigUpdated","inputs":[{"name":"minBettingDuration","type":"uint256","indexed":false,"internalType":"uint256"},{"name":"maxBettingDuration","type":"uint256","indexed":false,"internalType":"uint256"},{"name":"settlementDelay","type":"uint256","indexed":false,"internalType":"uint256"},{"name":"platformFeeRate","type":"uint256","indexed":false,"internalType":"uint256"}],"anonymous":false},{"type":"event","name":"MarketCancelled","inputs":[{"name":"marketId","type":"uint256","indexed":true,"internalType":"uint256"},{"name":"reason","type":"string","indexed":false,"internalType":"string"},{"name":"totalRefunds","type":"uint256","indexed":false,"internalType":"uint256"}],"anonymous":false},{"type":"event","name":"MarketCreated","inputs":[{"name":"marketId","type":"uint256","indexed":true,"internalType":"uint256"},{"name":"creator","type":"address","indexed":true,"internalType":"address"},{"name":"description","type":"string","indexed":false,"internalType":"string"},{"name":"targetYield","type":"uint256","indexed":false,"internalType":"uint256"},{"name":"bettingEndTime","type":"uint256","indexed":false,"internalType":"uint256"},{"name":"settlementTime","type":"uint256","indexed":false,"internalType":"uint256"},{"name":"useRandomDuration","type":"bool","indexed":false,"internalType":"bool"}],"anonymous":false},{"type":"event","name":"MarketSettled","inputs":[{"name":"marketId","type":"uint256","indexed":true,"internalType":"uint256"},{"name":"finalYield","type":"uint256","indexed":false,"internalType":"uint256"},{"name":"winner","type":"address","indexed":false,"internalType":"address"},{"name":"totalPayout","type":"uint256","indexed":false,"internalType":"uint256"},{"name":"platformFees","type":"uint256","indexed":false,"internalType":"uint256"}],"anonymous":false},{"type":"event","name":"OracleDataUpdated","inputs":[{"name":"marketId","type":"uint256","indexed":true,"internalType":"uint256"},{"name":"ftsoPrice","type":"uint256","indexed":false,"internalType":"uint256"},{"name":"fdcPrice","type":"uint256","indexed":false,"internalType":"uint256"},{"name":"confidence","type":"uint256","indexed":false,"internalType":"uint256"},{"name":"timestamp","type":"uint256","indexed":false,"internalType":"uint256"}],"anonymous":false},{"type":"event","name":"OwnershipTransferred","inputs":[{"name":"previousOwner","type":"address","indexed":true,"internalType":"address"},{"name":"newOwner","type":"address","indexed":true,"internalType":"address"}],"anonymous":false},{"type":"event","name":"Paused","inputs":[{"name":"account","type":"address","indexed":false,"internalType":"address"}],"anonymous":false},{"type":"event","name":"Unpaused","inputs":[{"name":"account","type":"address","indexed":false,"internalType":"address"}],"anonymous":false},{"type":"error","name":"EnforcedPause","inputs":[]},{"type":"error","name":"ExpectedPause","inputs":[]},{"type":"error","name":"OwnableInvalidOwner","inputs":[{"name":"owner","type":"address","internalType":"address"}]},{"type":"error","name":"OwnableUnauthorizedAccount","inputs":[{"name":"account","type":"address","internalType":"address"}]},{"type":"error","name":"ReentrancyGuardReentrantCall","inputs":[]}],"bytecode":{"object":"0x60e034620002bb57601f62002d1038819003918201601f1916830192916001600160401b039182851184861017620002c0578160809285926040978852833981010312620002bb576200005282620002d6565b916200006160208201620002d6565b90606062000071868301620002d6565b916001600160a01b03918291620000899101620002d6565b16928315620002a357600080546001600160a01b031981168617825588519197919584929183167f8be0079c531659141344cd1fd0a4f28419497f9722a3daafe3b4186f6b6457e08a80a3600180556001600e551693841562000261575081169182156200021d5716918215620001d95760805260a05260c05282519160e0830191821183831017620001c55750825261070880825262093a80806020840152610e10908185850152670de0b6b3a764000092836060860152604660c0683635c9adc5dea000009687608082015260c860a08201520152600755600855600955600a55600b5560c8600c556046600d5551612a249081620002ec8239608051818181611566015281816117a7015281816119110152611e65015260a05181818161093f01526125fc015260c0518181816108fa015261103f0152f35b634e487b7160e01b81526041600452602490fd5b855162461bcd60e51b815260206004820152601c60248201527f496e76616c69642053656375726552616e646f6d2061646472657373000000006044820152606490fd5b865162461bcd60e51b815260206004820152601b60248201527f496e76616c6964204654534f206f7261636c65206164647265737300000000006044820152606490fd5b62461bcd60e51b815260206004820152601460248201527f496e76616c6964204658525020616464726573730000000000000000000000006044820152606490fd5b8651631e4fbdf760e01b815260006004820152602490fd5b600080fd5b634e487b7160e01b600052604160045260246000fd5b51906001600160a01b0382168203620002bb5756fe6080604052600436101561001257600080fd5b60003560e01c806301caa15c14611fa757806312961cad14611f4a5780631b142f6214611f2e5780632f940c7014611dfd5780632fd2adfe14611de15780633ef1d43014611d2e5780633f4ba83a14611cc4578063406ef2ef14611ca657806351317b4e146118175780635c975abb146117f45780635f81a57c146117d65780635f90d5321461179157806361c4cc1514611701578063677bd9ff14611350578063715018a6146112f757806379502c55146112a65780638162486b146112885780638456cb591461122e5780638c70797a14610ba45780638da5cb5b14610b7b5780639c6142031461096e578063a2c44e6514610929578063b0623936146108e4578063b1283e77146107de578063da4473d81461072a578063db0b569e146106ca578063db0f871d14610672578063eb44fdd314610427578063f2fde38b1461039e578063fa744dd3146102135763ff4cd5b91461017157600080fd5b3461020e57600036600319011261020e57600f54601054906000916001600e54905b8181106101b157606084868560405192835260208301526040820152f35b80600052600360205260ff600a604060002001541660048110156101f857156101e3575b6101de906123b6565b610193565b936101f06101de916123b6565b9490506101d5565b634e487b7160e01b600052602160045260246000fd5b600080fd5b3461020e57604036600319011261020e5760043561022f612146565b9080151580610393575b61024290612452565b600052602060048152604060002060018060a01b0380931660005281526040600020805467ffffffffffffffff811161037d579160405192600561028a8383831b018661225d565b81855260009384528284208386019491855b84841061031b57505050505060405192818401908285525180915260408401929160005b8281106102cd5785850386f35b83518051881686528083015186840152604080820151891690870152606080820151908701526080808201519087015260a09081015115159086015260c090940193928101926001016102c0565b60068660019260409a989a5161033081612241565b8c875416815284870154838201528c6002880154166040820152600387015460608201526004870154608082015260ff8688015416151560a082015281520193019301929196949661029c565b634e487b7160e01b600052604160045260246000fd5b50600e548110610239565b3461020e57602036600319011261020e576103b761215c565b6103bf61238a565b6001600160a01b0390811690811561040e57600054826001600160601b0360a01b821617600055167f8be0079c531659141344cd1fd0a4f28419497f9722a3daafe3b4186f6b6457e0600080a3005b604051631e4fbdf760e01b815260006004820152602490fd5b3461020e57602036600319011261020e5760006101c060405161044981612208565b828152606060208201528260408201528260608201528260808201528260a08201528260c08201528260e08201528261010082015282610120820152826101408201528261016082015282610180820152826101a0820152015260043580151580610667575b6104b890612452565b60005260036020526040600020600d604051916104d483612208565b805483526104e46001820161227f565b602084015260028101546001600160a01b031660408401526003810154606084015260048101546080840152600581015460a0840152600681015460c0840152600781015460e084015260088101546101008401526009810154610120840152600a81015461055a9060ff166101408501612405565b600b81015461016084015260ff600c82015460018060a01b03811661018086015260a01c1615156101a084015201546101c0820152604051809160208252805160208301526101c06105bd60208301516101e06040860152610200850190612325565b9160018060a01b03604082015116606085015260608101516080850152608081015160a085015260a081015160c085015260c081015160e085015260e081015161010085015261010081015161012085015261012081015161014085015261062f610140820151610160860190612365565b61016081015161018085015260018060a01b03610180820151166101a08501526101a081015115158285015201516101e08301520390f35b50600e5481106104af565b3461020e57604036600319011261020e5761068b61215c565b6001600160a01b031660009081526005602052604090208054602435919082101561020e576020916106bc91612372565b90546040519160031b1c8152f35b3461020e57602036600319011261020e576107196004358015158061071f575b6106f390612452565b80600052600360205261070c6040600020541515612492565b61071461242f565b61257a565b60018055005b50600e5481106106ea565b3461020e5760208060031936011261020e576001600160a01b0361074c61215c565b1660005260058152604060002060405190818382549182815201908192600052846000209060005b868282106107ca57868661078a8288038361225d565b604051928392818401908285525180915260408401929160005b8281106107b357505050500390f35b8351855286955093810193928101926001016107a4565b835485529093019260019283019201610774565b3461020e57602036600319011261020e576004356000526003602052604060002080546001820161080e9061227f565b90600160a01b60019003600284015416926003810154906004810154600582015460068301546007840154600885015490600986015492600a87015460ff1694600b88015496600c89015498600d0154996040519d8e9d8e9d8e528d6101e0908160208201520161087e91612325565b9c6040015260608d015260808c015260a08b015260c08a015260e089015261010088015261012087015261014086016108b691612365565b6101608501526001600160a01b03811661018085015260a01c60ff1615156101a08401526101c08301520390f35b3461020e57600036600319011261020e576040517f00000000000000000000000000000000000000000000000000000000000000006001600160a01b03168152602090f35b3461020e57600036600319011261020e576040517f00000000000000000000000000000000000000000000000000000000000000006001600160a01b03168152602090f35b3461020e5760e036600319011261020e5761098761238a565b6004358015610b365760243581811115610af157604435918215610aac5760a4356103e88111610a6f5760c4359060648211610a2a577f84d25455db084cf777a0a4a00fcc28946b3a2ebc5cc866ef8820ab8571dbdd3694610a2592846007558560085581600955606435600a55608435600b5582600c55600d55604051948594859094939260609260808301968352602083015260408201520152565b0390a1005b60405162461bcd60e51b815260206004820152601c60248201527f496e76616c696420636f6e666964656e6365207468726573686f6c64000000006044820152606490fd5b60405162461bcd60e51b81526020600482015260156024820152740a0d8c2e8ccdee4da40cccaca40e8dede40d0d2ced605b1b6044820152606490fd5b60405162461bcd60e51b815260206004820152601860248201527f496e76616c696420736574746c656d656e742064656c617900000000000000006044820152606490fd5b60405162461bcd60e51b815260206004820152601c60248201527f496e76616c6964206d61782062657474696e67206475726174696f6e000000006044820152606490fd5b60405162461bcd60e51b815260206004820152601c60248201527f496e76616c6964206d696e2062657474696e67206475726174696f6e000000006044820152606490fd5b3461020e57600036600319011261020e576000546040516001600160a01b039091168152602090f35b3461020e57608036600319011261020e5767ffffffffffffffff6004351161020e5736602360043501121561020e5767ffffffffffffffff600435600401351161020e573660246004356004013560043501011161020e57606435604435811515820361020e57610c13612411565b610c1b61242f565b60043560040135156111f5576024351515806111e7575b156111ab576007548110158061119f575b1561115a5781600e5491610c56836123b6565b600e5580600094610fef575b50610c6d90426123f8565b90610c7a600954836123f8565b600c549460405195610c8b87612208565b858752604051610caa600480350135601f01601f19166020018261225d565b6004803590810135808352906024016020830137600060206004356004013583010152602088015233604088015260243560608801524260808801528460a08801528260c0880152600060e088015260006101008801526101208701526000610140870152600061016087015260006101808701528215156101a08701526101c0860152836000526003602052604060002085518155602086015180519067ffffffffffffffff821161037d578190610d6660018501546121ce565b601f8111610f9c575b50602090601f8311600114610f2a57600092610f1f575b50508160011b916000199060031b1c19161760018201555b6002810160018060a01b036040880151166001600160601b0360a01b825416179055606086015160038201556080860151600482015560a0860151600582015560c0860151600682015560e08601516007820155610100860151600882015561012086015160098201556101408601519560048710156101f8576101c0600d91602098600a85019060ff80198354169116179055610160810151600b850155600c840160018060a01b036101808301511681549060ff60a01b6101a0850151151560a01b16916affffffffffffffffffffff60a81b16171790550151910155610e88600f546123b6565b600f556040519260a084526004356004013560a08501526004356004013560246004350160c0860137600060c06004356004013586010152602435868501526040840152606083015215156080820152817f175ead76a91ace38a6f705caa36e3cd8aaad3eb1f7b5a8a00fc12add675753d2339260c081601f19601f6004356004013501168101030190a360018055604051908152f35b015190508880610d86565b9250600184016000526020600020906000935b601f1984168510610f81576001945083601f19811610610f68575b505050811b016001820155610d9e565b015160001960f88460031b161c19169055888080610f58565b81810151835560209485019460019093019290910190610f3d565b909150600184016000526020600020601f840160051c810160208510610fe8575b90849392915b601f830160051c82018110610fd9575050610d6f565b60008155859450600101610fc3565b5080610fbd565b93505060405192602093848101908482524260408201523360601b606082015260243560748201526074815261102481612225565b519020604051637363ae1f60e01b81526004810182905290947f00000000000000000000000000000000000000000000000000000000000000006001600160a01b031691818160248166038d7ea4c68000875af1801561111f57829160009161112b575b5096602460405180958193632152307160e01b835260048301525afa90811561111f576000916110f0575b506014915006605f0180605f116110da576110d3606491610c6d936123c5565b0490610c62565b634e487b7160e01b600052601160045260246000fd5b905081813d8311611118575b611106818361225d565b8101031261020e5760149051866110b3565b503d6110fc565b6040513d6000823e3d90fd5b82819392503d8311611153575b611142818361225d565b8101031261020e5781905188611088565b503d611138565b60405162461bcd60e51b815260206004820152601860248201527f496e76616c69642062657474696e67206475726174696f6e00000000000000006044820152606490fd5b50600854811115610c43565b60405162461bcd60e51b8152602060048201526014602482015273125b9d985b1a59081d185c99d95d081e5a595b1960621b6044820152606490fd5b506127106024351115610c32565b60405162461bcd60e51b815260206004820152601160248201527022b6b83a3c903232b9b1b934b83a34b7b760791b6044820152606490fd5b3461020e57600036600319011261020e5761124761238a565b61124f612411565b600160ff1960025416176002557f62e78cea01bee320cd4e420270b5ea74000d11b0c9f74754ebdbfc544b05a2586020604051338152a1005b3461020e57600036600319011261020e576020600f54604051908152f35b3461020e57600036600319011261020e5760e0600754600854600954600a54600b5490600c5492600d5494604051968752602087015260408601526060850152608084015260a083015260c0820152f35b3461020e57600036600319011261020e5761131061238a565b600080546001600160a01b0319811682556001600160a01b03167f8be0079c531659141344cd1fd0a4f28419497f9722a3daafe3b4186f6b6457e08280a3005b3461020e5760208060031936011261020e5760043590811515806116f6575b61137890612452565b8160005260038082526113916040600020541515612492565b61139961242f565b82600052808252604060002092600a840160ff8082541660048110156101f857600290858282149182156116ec575b5050156116a7578360005260048652604060002033600052865260406000209182541561167257600094855b845487101561153357611407878661219c565b5083600580920154166115285761141e888761219c565b50016001908160ff198254161790558387541660048110156101f8578903611468575061145c61146291896114538a8961219c565b500154906123f8565b966123b6565b956113f4565b849061147789889a949a61219c565b5090910154600c8c01546001600160a01b0390811692911682146114a1575b5050611462906123b6565b8b6007810154916114d36008830154926127106114cc60096114c387896123f8565b930154836123c5565b049061256d565b93036115205750905b89826114e9575b50611496565b6115179261150c859b9361151193611504611462988d61219c565b5001546123c5565b6123d8565b906123f8565b96908b896114e3565b9050906114dc565b5095611462906123b6565b908882156116385760405163a9059cbb60e01b815233600482015260248101849052818160448160006001600160a01b037f0000000000000000000000000000000000000000000000000000000000000000165af190811561111f5760009161160b575b50156115ce577fad65ef4ba28f4ce1aaee7e8f86645eb4ce0ddc8b6c8fa2821564a94dbd2485fe906040519384523393a360018055005b6064906040519062461bcd60e51b82526004820152601660248201527514185e5bdd5d081d1c985b9cd9995c8819985a5b195960521b6044820152fd5b61162b9150823d8411611631575b611623818361225d565b810190612555565b84611597565b503d611619565b6064906040519062461bcd60e51b8252600482015260136024820152724e6f207061796f757420617661696c61626c6560681b6044820152fd5b60405162461bcd60e51b815260048101889052600d60248201526c139bc818995d1cc8199bdd5b99609a1b6044820152606490fd5b60405162461bcd60e51b815260048101879052601f60248201527f4d61726b6574206e6f7420736574746c6564206f722063616e63656c6c6564006044820152606490fd5b14905085896113c8565b50600e54821061136f565b3461020e5761170f36612172565b916000526004602052604060002060018060a01b038092166000526020526040600020805483101561020e5760c0926117479161219c565b5090808254169160018101549160028201541660038201549060ff6005600485015494015416936040519586526020860152604085015260608401526080830152151560a0820152f35b3461020e57600036600319011261020e576040517f00000000000000000000000000000000000000000000000000000000000000006001600160a01b03168152602090f35b3461020e57600036600319011261020e576020601054604051908152f35b3461020e57600036600319011261020e57602060ff600254166040519015158152f35b3461020e5761182536612172565b9082151580611c9b575b61183890612452565b8260005260036020526118516040600020541515612492565b82600052600360205260ff600a604060002001541660048110156101f85761187990156124d6565b826000526003602052600560406000200154421015611c5f576001600160a01b038116600114808015611c4c575b6118b090612516565b6118b8612411565b6118c061242f565b600a548310611c1157600b548311611bd6578360005260036020526040600020906040516323b872dd60e01b8152336004820152306024820152846044820152602081606481600060018060a01b037f0000000000000000000000000000000000000000000000000000000000000000165af190811561111f57600091611bb7575b5015611b7b5715611b65576007810161195c8482546123f8565b90555b60405161196b81612241565b33815284602082015260018060a01b0383166040820152836060820152426080820152600060a082015284600052600460205260406000203360005260205260406000208054600160401b81101561037d576119cc9160018201815561219c565b611b4f57600560a0611a4093600180831b038151166001600160601b03831b9081865416178555602082015160018601556002850190600180851b036040840151169082541617905560608101516003850155608081015160048501550151151591019060ff801983541691151516179055565b60003360005260056020526040600020856000918054925b838110611b1a575b5050505015611acd575b611a8d90611a7a846010546123f8565b60105560086007820154910154906123f8565b604051928352602083015260018060a01b0316917f3eb44cea59f49c22287f8e33523d42ebf97e0ef1381c5993095673a5a6f66f9360403393a460018055005b336000526005602052604060002090815491600160401b83101561037d5782611afe916001611a8d95018155612372565b81549060031b9087821b91600019901b19161790559050611a6a565b82611b258284612372565b90549060031b1c14611b3f57611b3a906123b6565b611a58565b5050505050600185858180611a60565b634e487b7160e01b600052600060045260246000fd5b60088101611b748482546123f8565b905561195f565b60405162461bcd60e51b815260206004820152601460248201527311961494081d1c985b9cd9995c8819985a5b195960621b6044820152606490fd5b611bd0915060203d60201161163157611623818361225d565b86611942565b60405162461bcd60e51b81526020600482015260136024820152725374616b652061626f7665206d6178696d756d60681b6044820152606490fd5b60405162461bcd60e51b81526020600482015260136024820152725374616b652062656c6f77206d696e696d756d60681b6044820152606490fd5b506001600160a01b0382166002146118a7565b60405162461bcd60e51b815260206004820152601460248201527310995d1d1a5b99c81c195c9a5bd908195b99195960621b6044820152606490fd5b50600e54831061182f565b3461020e57600036600319011261020e576020600e54604051908152f35b3461020e57600036600319011261020e57611cdd61238a565b60025460ff811615611d1c5760ff19166002557f5db9ee0a495bf2e6ff9c91a7834c1ba4fdd244a5e8aa4e537bd38aeae4b073aa6020604051338152a1005b604051638dfc202b60e01b8152600490fd5b3461020e57602036600319011261020e57600435611d4a6129ec565b5080151580611dd6575b611d5d90612452565b600052600660205260a06040600020604051611d7881612225565b81549182825260018101546020830190815260028201549060408401918252608060ff600460038601549560608801968752015416940193151584526040519485525160208501525160408401525160608301525115156080820152f35b50600e548110611d54565b3461020e57600036600319011261020e57602060405160028152f35b3461020e57604036600319011261020e57611e16612146565b611e1e61238a565b6001600160a01b0381811615611ef55760405163a9059cbb60e01b81526001600160a01b0392909216600480840191909152356024830152602090829060449082906000907f0000000000000000000000000000000000000000000000000000000000000000165af190811561111f57600091611ed7575b5015611e9e57005b60405162461bcd60e51b815260206004820152601160248201527015da5d1a191c985dd85b0819985a5b1959607a1b6044820152606490fd5b611eef915060203d811161163157611623818361225d565b81611e96565b60405162461bcd60e51b8152602060048201526011602482015270125b9d985b1a59081c9958da5c1a595b9d607a1b6044820152606490fd5b3461020e57600036600319011261020e57602060405160018152f35b3461020e57602036600319011261020e57600435600052600660205260a06040600020805490600181015490600281015460ff60046003840154930154169260405194855260208501526040840152606083015215156080820152f35b3461020e57611fb536612172565b91908115158061213b575b611fc990612452565b6001600160a01b03908116600181149290611fed9084908115612130575b50612516565b60005260036020528260406000206120e66040519361200b85612208565b8254855261201b6001840161227f565b60208601528060028401541660408601526003830154606086015260048301546080860152600583015460a0860152600683015460c086015260078301549460e081019586526101c0600d600886015495610100840196875260ff600982015495610120860196875261209882600a850154166101408801612405565b600b830154610160870152600c83015490811661018087015260a01c1615156101a085015201549101526127106114cc6120de866120d989518851906123f8565b6123f8565b9251836123c5565b931561212057506120f791516123f8565b80156121145761150c61210c926020946123c5565b604051908152f35b5050506020600061210c565b61212b9250516123f8565b6120f7565b600291501486611fe7565b50600e548210611fc0565b602435906001600160a01b038216820361020e57565b600435906001600160a01b038216820361020e57565b606090600319011261020e57600435906024356001600160a01b038116810361020e579060443590565b80548210156121b8576000526006602060002091020190600090565b634e487b7160e01b600052603260045260246000fd5b90600182811c921680156121fe575b60208310146121e857565b634e487b7160e01b600052602260045260246000fd5b91607f16916121dd565b6101e0810190811067ffffffffffffffff82111761037d57604052565b60a0810190811067ffffffffffffffff82111761037d57604052565b60c0810190811067ffffffffffffffff82111761037d57604052565b90601f8019910116810190811067ffffffffffffffff82111761037d57604052565b9060405191826000825492612293846121ce565b90818452600194858116908160001461230257506001146122bf575b50506122bd9250038361225d565b565b9093915060005260209081600020936000915b8183106122ea5750506122bd935082010138806122af565b855488840185015294850194879450918301916122d2565b9150506122bd94506020925060ff191682840152151560051b82010138806122af565b919082519283825260005b848110612351575050826000602080949584010152601f8019910116010190565b602081830181015184830182015201612330565b9060048210156101f85752565b80548210156121b85760005260206000200190600090565b6000546001600160a01b0316330361239e57565b60405163118cdaa760e01b8152336004820152602490fd5b60001981146110da5760010190565b818102929181159184041417156110da57565b81156123e2570490565b634e487b7160e01b600052601260045260246000fd5b919082018092116110da57565b60048210156101f85752565b60ff6002541661241d57565b60405163d93c066560e01b8152600490fd5b600260015414612440576002600155565b604051633ee5aeb560e01b8152600490fd5b1561245957565b60405162461bcd60e51b8152602060048201526011602482015270125b9d985b1a59081b585c9ad95d081251607a1b6044820152606490fd5b1561249957565b60405162461bcd60e51b815260206004820152601560248201527413585c9ad95d08191bd95cc81b9bdd08195e1a5cdd605a1b6044820152606490fd5b156124dd57565b60405162461bcd60e51b81526020600482015260116024820152704d61726b6574206e6f742061637469766560781b6044820152606490fd5b1561251d57565b60405162461bcd60e51b815260206004820152601060248201526f24b73b30b634b2103837b9b4ba34b7b760811b6044820152606490fd5b9081602091031261020e5751801515810361020e5790565b919082039182116110da57565b90600091808352602060038152604080852090600a820160ff81541696600497888110156129d9576125ac90156124d6565b60068401544210612996576125bf6129ec565b508251637a77afab60e01b815288810186905260248101899052635553444360e01b60448201526001600160a01b039590949060609081876064817f00000000000000000000000000000000000000000000000000000000000000008c165afa97881561298c5784978599612940575b5061263a888061256d565b98612710998a8102908082048c1490151715612921578961265a916123d8565b606481101561293557606403606481116129215790612694915b60649161012c612684824261256d565b11156129065750603291506123f8565b60011c986126a289806123f8565b60011c9560328b10978815988a51986126ba8a612225565b89528589019b8c528a890199428b528d888b019e8f5260808b0192828452916128fa575b5061282f57948d9e9f946127e87f97815ebd12f0465c2af258d72e38f4bc1f9bbce0c21847ccee612563f050b9159f9893958f958f976128229f9e9d9c978f8f9b8f919d8f937ffac070a92cf963457b7c2313418d0836aa16644761256e506ddaa55907675fea9f9e60809f61278496895260068d52882094519e8f865551600186015551600285015551600384015551151591019060ff801983541691151516179055565b600b8801899055805460ff191660021790555060038601548710612827576001925b600c8701931692836001600160601b0360a01b8254161790556127e060096127d7600789015460088a0154906123f8565b970154876123c5565b04809561256d565b918b5195865285015289840152820152a2519351945190519151948594859094939260609260808301968352602083015260408201520152565b0390a2565b6002926127a6565b5050995050509495505050505081519282840184811067ffffffffffffffff8211176128e7577f83d722ef07d419d01c77c575c57db9e64f62ac325434ba2dcc391d5e91145d2e959697506128cb918491825260168652754f7261636c65206461746120756e72656c6961626c6560501b848701528781526003845220600a8101600360ff1982541617905560086007820154910154906123f8565b6128de8351948486958652850190612325565b918301520390a2565b634e487b7160e01b825260418852602482fd5b9050600d5411386126de565b612912603c914261256d565b11156123f857605091506123f8565b50634e487b7160e01b865260118d52602486fd5b506126949086612674565b8380929a508199503d8311612985575b61295a818361225d565b81010312612981578651868289015198015160ff81160361297d5796973861262f565b8480fd5b8380fd5b503d612950565b86513d86823e3d90fd5b825162461bcd60e51b8152808901869052601b60248201527f536574746c656d656e742074696d65206e6f74207265616368656400000000006044820152606490fd5b634e487b7160e01b825260218952602482fd5b604051906129f982612225565b6000608083828152826020820152826040820152826060820152015256fea164736f6c6343000814000a","linkReferences":{}},"methodIdentifiers":{"NO_TOKEN()":"2fd2adfe","YES_TOKEN()":"1b142f62","calculatePayout(uint256,address,uint256)":"01caa15c","claimWinnings(uint256)":"677bd9ff","config()":"79502c55","createMarket(string,uint256,uint256,bool)":"8c70797a","emergencyWithdraw(uint256,address)":"2f940c70","ftsoOracle()":"a2c44e65","fxrp()":"5f90d532","getMarket(uint256)":"eb44fdd3","getMarketOracleData(uint256)":"3ef1d430","getMarketStats()":"ff4cd5b9","getUserBets(uint256,address)":"fa744dd3","getUserMarkets(address)":"da4473d8","marketOracleData(uint256)":"12961cad","markets(uint256)":"b1283e77","nextMarketId()":"406ef2ef","owner()":"8da5cb5b","pause()":"8456cb59","paused()":"5c975abb","placeBet(uint256,address,uint256)":"51317b4e","renounceOwnership()":"715018a6","secureRandom()":"b0623936","settleMarket(uint256)":"db0b569e","totalMarkets()":"8162486b","totalVolume()":"5f81a57c","transferOwnership(address)":"f2fde38b","unpause()":"3f4ba83a","updateConfig((uint256,uint256,uint256,uint256,uint256,uint256,uint256))":"9c614203","userBets(uint256,address,uint256)":"61c4cc15","userMarkets(address,uint256)":"db0f871d"},"id":40}